{
  "_format": "hh-sol-artifact-1",
  "contractName": "Token",
  "sourceName": "contracts/Token.sol",
  "abi": [
    {
      "inputs": [
        {
          "internalType": "string",
          "name": "_name",
          "type": "string"
        },
        {
          "internalType": "string",
          "name": "_symbol",
          "type": "string"
        },
        {
          "internalType": "uint256",
          "name": "_maxSupply",
          "type": "uint256"
        }
      ],
      "stateMutability": "nonpayable",
      "type": "constructor"
    },
    {
      "inputs": [
        {
          "internalType": "address",
          "name": "_from",
          "type": "address"
        },
        {
          "internalType": "address",
          "name": "_to",
          "type": "address"
        },
        {
          "internalType": "uint256",
          "name": "amount",
          "type": "uint256"
        }
      ],
      "name": "_transfer",
      "outputs": [
        {
          "internalType": "bool",
          "name": "success",
          "type": "bool"
        }
      ],
      "stateMutability": "nonpayable",
      "type": "function"
    },
    {
      "inputs": [
        {
          "internalType": "address",
          "name": "",
          "type": "address"
        }
      ],
      "name": "balanceOf",
      "outputs": [
        {
          "internalType": "uint256",
          "name": "",
          "type": "uint256"
        }
      ],
      "stateMutability": "view",
      "type": "function"
    },
    {
      "inputs": [],
      "name": "decimals",
      "outputs": [
        {
          "internalType": "uint256",
          "name": "",
          "type": "uint256"
        }
      ],
      "stateMutability": "view",
      "type": "function"
    },
    {
      "inputs": [],
      "name": "maxSupply",
      "outputs": [
        {
          "internalType": "uint256",
          "name": "",
          "type": "uint256"
        }
      ],
      "stateMutability": "view",
      "type": "function"
    },
    {
      "inputs": [],
      "name": "name",
      "outputs": [
        {
          "internalType": "string",
          "name": "",
          "type": "string"
        }
      ],
      "stateMutability": "view",
      "type": "function"
    },
    {
      "inputs": [],
      "name": "owner",
      "outputs": [
        {
          "internalType": "address",
          "name": "",
          "type": "address"
        }
      ],
      "stateMutability": "view",
      "type": "function"
    },
    {
      "inputs": [],
      "name": "symbol",
      "outputs": [
        {
          "internalType": "string",
          "name": "",
          "type": "string"
        }
      ],
      "stateMutability": "view",
      "type": "function"
    },
    {
      "inputs": [
        {
          "internalType": "address",
          "name": "_to",
          "type": "address"
        },
        {
          "internalType": "uint256",
          "name": "amount",
          "type": "uint256"
        }
      ],
      "name": "transfer",
      "outputs": [
        {
          "internalType": "bool",
          "name": "success",
          "type": "bool"
        }
      ],
      "stateMutability": "nonpayable",
      "type": "function"
    }
  ],
  "bytecode": "0x6080604052601260035534801561001557600080fd5b50604051610e96380380610e96833981810160405281019061003791906102d1565b336000806101000a81548173ffffffffffffffffffffffffffffffffffffffff021916908373ffffffffffffffffffffffffffffffffffffffff16021790555082600190816100869190610573565b5081600290816100969190610573565b50600354600a6100a691906107a7565b816100b191906107f2565b600481905550600454600560008060009054906101000a900473ffffffffffffffffffffffffffffffffffffffff1673ffffffffffffffffffffffffffffffffffffffff1673ffffffffffffffffffffffffffffffffffffffff16815260200190815260200160002081905550505050610834565b6000604051905090565b600080fd5b600080fd5b600080fd5b600080fd5b6000601f19601f8301169050919050565b7f4e487b7100000000000000000000000000000000000000000000000000000000600052604160045260246000fd5b61018d82610144565b810181811067ffffffffffffffff821117156101ac576101ab610155565b5b80604052505050565b60006101bf610126565b90506101cb8282610184565b919050565b600067ffffffffffffffff8211156101eb576101ea610155565b5b6101f482610144565b9050602081019050919050565b60005b8381101561021f578082015181840152602081019050610204565b60008484015250505050565b600061023e610239846101d0565b6101b5565b90508281526020810184848401111561025a5761025961013f565b5b610265848285610201565b509392505050565b600082601f8301126102825761028161013a565b5b815161029284826020860161022b565b91505092915050565b6000819050919050565b6102ae8161029b565b81146102b957600080fd5b50565b6000815190506102cb816102a5565b92915050565b6000806000606084860312156102ea576102e9610130565b5b600084015167ffffffffffffffff81111561030857610307610135565b5b6103148682870161026d565b935050602084015167ffffffffffffffff81111561033557610334610135565b5b6103418682870161026d565b9250506040610352868287016102bc565b9150509250925092565b600081519050919050565b7f4e487b7100000000000000000000000000000000000000000000000000000000600052602260045260246000fd5b600060028204905060018216806103ae57607f821691505b6020821081036103c1576103c0610367565b5b50919050565b60008190508160005260206000209050919050565b60006020601f8301049050919050565b600082821b905092915050565b6000600883026104297fffffffffffffffffffffffffffffffffffffffffffffffffffffffffffffffff826103ec565b61043386836103ec565b95508019841693508086168417925050509392505050565b6000819050919050565b600061047061046b6104668461029b565b61044b565b61029b565b9050919050565b6000819050919050565b61048a83610455565b61049e61049682610477565b8484546103f9565b825550505050565b600090565b6104b36104a6565b6104be818484610481565b505050565b5b818110156104e2576104d76000826104ab565b6001810190506104c4565b5050565b601f821115610527576104f8816103c7565b610501846103dc565b81016020851015610510578190505b61052461051c856103dc565b8301826104c3565b50505b505050565b600082821c905092915050565b600061054a6000198460080261052c565b1980831691505092915050565b60006105638383610539565b9150826002028217905092915050565b61057c8261035c565b67ffffffffffffffff81111561059557610594610155565b5b61059f8254610396565b6105aa8282856104e6565b600060209050601f8311600181146105dd57600084156105cb578287015190505b6105d58582610557565b86555061063d565b601f1984166105eb866103c7565b60005b82811015610613578489015182556001820191506020850194506020810190506105ee565b86831015610630578489015161062c601f891682610539565b8355505b6001600288020188555050505b505050505050565b7f4e487b7100000000000000000000000000000000000000000000000000000000600052601160045260246000fd5b60008160011c9050919050565b6000808291508390505b60018511156106cb578086048111156106a7576106a6610645565b5b60018516156106b65780820291505b80810290506106c485610674565b945061068b565b94509492505050565b6000826106e457600190506107a0565b816106f257600090506107a0565b8160018114610708576002811461071257610741565b60019150506107a0565b60ff84111561072457610723610645565b5b8360020a91508482111561073b5761073a610645565b5b506107a0565b5060208310610133831016604e8410600b84101617156107765782820a90508381111561077157610770610645565b5b6107a0565b6107838484846001610681565b9250905081840481111561079a57610799610645565b5b81810290505b9392505050565b60006107b28261029b565b91506107bd8361029b565b92506107ea7fffffffffffffffffffffffffffffffffffffffffffffffffffffffffffffffff84846106d4565b905092915050565b60006107fd8261029b565b91506108088361029b565b92508282026108168161029b565b9150828204841483151761082d5761082c610645565b5b5092915050565b610653806108436000396000f3fe608060405234801561001057600080fd5b50600436106100885760003560e01c80638da5cb5b1161005b5780638da5cb5b1461012957806395d89b4114610147578063a9059cbb14610165578063d5abeb011461019557610088565b806306fdde031461008d57806330e0789e146100ab578063313ce567146100db57806370a08231146100f9575b600080fd5b6100956101b3565b6040516100a291906103b8565b60405180910390f35b6100c560048036038101906100c09190610473565b610241565b6040516100d291906104e1565b60405180910390f35b6100e361024a565b6040516100f0919061050b565b60405180910390f35b610113600480360381019061010e9190610526565b610250565b604051610120919061050b565b60405180910390f35b610131610268565b60405161013e9190610562565b60405180910390f35b61014f61028c565b60405161015c91906103b8565b60405180910390f35b61017f600480360381019061017a919061057d565b61031a565b60405161018c91906104e1565b60405180910390f35b61019d610322565b6040516101aa919061050b565b60405180910390f35b600180546101c0906105ec565b80601f01602080910402602001604051908101604052809291908181526020018280546101ec906105ec565b80156102395780601f1061020e57610100808354040283529160200191610239565b820191906000526020600020905b81548152906001019060200180831161021c57829003601f168201915b505050505081565b60009392505050565b60035481565b60056020528060005260406000206000915090505481565b60008054906101000a900473ffffffffffffffffffffffffffffffffffffffff1681565b60028054610299906105ec565b80601f01602080910402602001604051908101604052809291908181526020018280546102c5906105ec565b80156103125780601f106102e757610100808354040283529160200191610312565b820191906000526020600020905b8154815290600101906020018083116102f557829003601f168201915b505050505081565b600092915050565b60045481565b600081519050919050565b600082825260208201905092915050565b60005b83811015610362578082015181840152602081019050610347565b60008484015250505050565b6000601f19601f8301169050919050565b600061038a82610328565b6103948185610333565b93506103a4818560208601610344565b6103ad8161036e565b840191505092915050565b600060208201905081810360008301526103d2818461037f565b905092915050565b600080fd5b600073ffffffffffffffffffffffffffffffffffffffff82169050919050565b600061040a826103df565b9050919050565b61041a816103ff565b811461042557600080fd5b50565b60008135905061043781610411565b92915050565b6000819050919050565b6104508161043d565b811461045b57600080fd5b50565b60008135905061046d81610447565b92915050565b60008060006060848603121561048c5761048b6103da565b5b600061049a86828701610428565b93505060206104ab86828701610428565b92505060406104bc8682870161045e565b9150509250925092565b60008115159050919050565b6104db816104c6565b82525050565b60006020820190506104f660008301846104d2565b92915050565b6105058161043d565b82525050565b600060208201905061052060008301846104fc565b92915050565b60006020828403121561053c5761053b6103da565b5b600061054a84828501610428565b91505092915050565b61055c816103ff565b82525050565b60006020820190506105776000830184610553565b92915050565b60008060408385031215610594576105936103da565b5b60006105a285828601610428565b92505060206105b38582860161045e565b9150509250929050565b7f4e487b7100000000000000000000000000000000000000000000000000000000600052602260045260246000fd5b6000600282049050600182168061060457607f821691505b602082108103610617576106166105bd565b5b5091905056fea2646970667358221220973d8ac56fef9ae6808f7f3134ef3baf56f209c1a353bbf728707ca1ae0053f364736f6c634300081c0033",
  "linkReferences": {},
  "deployedLinkReferences": {}
}