{
  "_format": "hh-sol-artifact-1",
  "contractName": "Token",
  "sourceName": "contracts/Token.sol",
  "abi": [
    {
      "inputs": [
        {
          "internalType": "string",
          "name": "_name",
          "type": "string"
        },
        {
          "internalType": "string",
          "name": "_symbol",
          "type": "string"
        },
        {
          "internalType": "uint256",
          "name": "_totalSupply",
          "type": "uint256"
        }
      ],
      "stateMutability": "nonpayable",
      "type": "constructor"
    },
    {
      "anonymous": false,
      "inputs": [
        {
          "indexed": true,
          "internalType": "address",
          "name": "owner",
          "type": "address"
        },
        {
          "indexed": true,
          "internalType": "address",
          "name": "spender",
          "type": "address"
        },
        {
          "indexed": false,
          "internalType": "uint256",
          "name": "value",
          "type": "uint256"
        }
      ],
      "name": "Approval",
      "type": "event"
    },
    {
      "anonymous": false,
      "inputs": [
        {
          "indexed": true,
          "internalType": "address",
          "name": "from",
          "type": "address"
        },
        {
          "indexed": true,
          "internalType": "address",
          "name": "to",
          "type": "address"
        },
        {
          "indexed": false,
          "internalType": "uint256",
          "name": "value",
          "type": "uint256"
        }
      ],
      "name": "Transfer",
      "type": "event"
    },
    {
      "inputs": [
        {
          "internalType": "address",
          "name": "_from",
          "type": "address"
        },
        {
          "internalType": "address",
          "name": "_to",
          "type": "address"
        },
        {
          "internalType": "uint256",
          "name": "_value",
          "type": "uint256"
        }
      ],
      "name": "_transfer",
      "outputs": [
        {
          "internalType": "bool",
          "name": "success",
          "type": "bool"
        }
      ],
      "stateMutability": "nonpayable",
      "type": "function"
    },
    {
      "inputs": [
        {
          "internalType": "address",
          "name": "",
          "type": "address"
        },
        {
          "internalType": "address",
          "name": "",
          "type": "address"
        }
      ],
      "name": "allowance",
      "outputs": [
        {
          "internalType": "uint256",
          "name": "",
          "type": "uint256"
        }
      ],
      "stateMutability": "view",
      "type": "function"
    },
    {
      "inputs": [
        {
          "internalType": "address",
          "name": "_spender",
          "type": "address"
        },
        {
          "internalType": "uint256",
          "name": "_value",
          "type": "uint256"
        }
      ],
      "name": "approve",
      "outputs": [
        {
          "internalType": "bool",
          "name": "success",
          "type": "bool"
        }
      ],
      "stateMutability": "nonpayable",
      "type": "function"
    },
    {
      "inputs": [
        {
          "internalType": "address",
          "name": "",
          "type": "address"
        }
      ],
      "name": "balanceOf",
      "outputs": [
        {
          "internalType": "uint256",
          "name": "",
          "type": "uint256"
        }
      ],
      "stateMutability": "view",
      "type": "function"
    },
    {
      "inputs": [],
      "name": "decimals",
      "outputs": [
        {
          "internalType": "uint8",
          "name": "",
          "type": "uint8"
        }
      ],
      "stateMutability": "view",
      "type": "function"
    },
    {
      "inputs": [],
      "name": "name",
      "outputs": [
        {
          "internalType": "string",
          "name": "",
          "type": "string"
        }
      ],
      "stateMutability": "view",
      "type": "function"
    },
    {
      "inputs": [],
      "name": "owner",
      "outputs": [
        {
          "internalType": "address",
          "name": "",
          "type": "address"
        }
      ],
      "stateMutability": "view",
      "type": "function"
    },
    {
      "inputs": [],
      "name": "symbol",
      "outputs": [
        {
          "internalType": "string",
          "name": "",
          "type": "string"
        }
      ],
      "stateMutability": "view",
      "type": "function"
    },
    {
      "inputs": [],
      "name": "totalSupply",
      "outputs": [
        {
          "internalType": "uint256",
          "name": "",
          "type": "uint256"
        }
      ],
      "stateMutability": "view",
      "type": "function"
    },
    {
      "inputs": [
        {
          "internalType": "address",
          "name": "_to",
          "type": "address"
        },
        {
          "internalType": "uint256",
          "name": "_value",
          "type": "uint256"
        }
      ],
      "name": "transfer",
      "outputs": [
        {
          "internalType": "bool",
          "name": "success",
          "type": "bool"
        }
      ],
      "stateMutability": "nonpayable",
      "type": "function"
    },
    {
      "inputs": [
        {
          "internalType": "address",
          "name": "_from",
          "type": "address"
        },
        {
          "internalType": "address",
          "name": "_to",
          "type": "address"
        },
        {
          "internalType": "uint256",
          "name": "_value",
          "type": "uint256"
        }
      ],
      "name": "transferFrom",
      "outputs": [
        {
          "internalType": "bool",
          "name": "success",
          "type": "bool"
        }
      ],
      "stateMutability": "nonpayable",
      "type": "function"
    }
  ],
  "bytecode": "0x60806040526012600360006101000a81548160ff021916908360ff16021790555034801561002c57600080fd5b50604051611460380380611460833981810160405281019061004e91906102f5565b336000806101000a81548173ffffffffffffffffffffffffffffffffffffffff021916908373ffffffffffffffffffffffffffffffffffffffff160217905550826001908161009d9190610597565b5081600290816100ad9190610597565b50600360009054906101000a900460ff16600a6100ca91906107d8565b816100d59190610823565b600481905550600454600560008060009054906101000a900473ffffffffffffffffffffffffffffffffffffffff1673ffffffffffffffffffffffffffffffffffffffff1673ffffffffffffffffffffffffffffffffffffffff16815260200190815260200160002081905550505050610865565b6000604051905090565b600080fd5b600080fd5b600080fd5b600080fd5b6000601f19601f8301169050919050565b7f4e487b7100000000000000000000000000000000000000000000000000000000600052604160045260246000fd5b6101b182610168565b810181811067ffffffffffffffff821117156101d0576101cf610179565b5b80604052505050565b60006101e361014a565b90506101ef82826101a8565b919050565b600067ffffffffffffffff82111561020f5761020e610179565b5b61021882610168565b9050602081019050919050565b60005b83811015610243578082015181840152602081019050610228565b60008484015250505050565b600061026261025d846101f4565b6101d9565b90508281526020810184848401111561027e5761027d610163565b5b610289848285610225565b509392505050565b600082601f8301126102a6576102a561015e565b5b81516102b684826020860161024f565b91505092915050565b6000819050919050565b6102d2816102bf565b81146102dd57600080fd5b50565b6000815190506102ef816102c9565b92915050565b60008060006060848603121561030e5761030d610154565b5b600084015167ffffffffffffffff81111561032c5761032b610159565b5b61033886828701610291565b935050602084015167ffffffffffffffff81111561035957610358610159565b5b61036586828701610291565b9250506040610376868287016102e0565b9150509250925092565b600081519050919050565b7f4e487b7100000000000000000000000000000000000000000000000000000000600052602260045260246000fd5b600060028204905060018216806103d257607f821691505b6020821081036103e5576103e461038b565b5b50919050565b60008190508160005260206000209050919050565b60006020601f8301049050919050565b600082821b905092915050565b60006008830261044d7fffffffffffffffffffffffffffffffffffffffffffffffffffffffffffffffff82610410565b6104578683610410565b95508019841693508086168417925050509392505050565b6000819050919050565b600061049461048f61048a846102bf565b61046f565b6102bf565b9050919050565b6000819050919050565b6104ae83610479565b6104c26104ba8261049b565b84845461041d565b825550505050565b600090565b6104d76104ca565b6104e28184846104a5565b505050565b5b81811015610506576104fb6000826104cf565b6001810190506104e8565b5050565b601f82111561054b5761051c816103eb565b61052584610400565b81016020851015610534578190505b61054861054085610400565b8301826104e7565b50505b505050565b600082821c905092915050565b600061056e60001984600802610550565b1980831691505092915050565b6000610587838361055d565b9150826002028217905092915050565b6105a082610380565b67ffffffffffffffff8111156105b9576105b8610179565b5b6105c382546103ba565b6105ce82828561050a565b600060209050601f83116001811461060157600084156105ef578287015190505b6105f9858261057b565b865550610661565b601f19841661060f866103eb565b60005b8281101561063757848901518255600182019150602085019450602081019050610612565b868310156106545784890151610650601f89168261055d565b8355505b6001600288020188555050505b505050505050565b7f4e487b7100000000000000000000000000000000000000000000000000000000600052601160045260246000fd5b60008160011c9050919050565b6000808291508390505b60018511156106ef578086048111156106cb576106ca610669565b5b60018516156106da5780820291505b80810290506106e885610698565b94506106af565b94509492505050565b60008261070857600190506107c4565b8161071657600090506107c4565b816001811461072c576002811461073657610765565b60019150506107c4565b60ff84111561074857610747610669565b5b8360020a91508482111561075f5761075e610669565b5b506107c4565b5060208310610133831016604e8410600b841016171561079a5782820a90508381111561079557610794610669565b5b6107c4565b6107a784848460016106a5565b925090508184048111156107be576107bd610669565b5b81810290505b9392505050565b600060ff82169050919050565b60006107e3826102bf565b91506107ee836107cb565b925061081b7fffffffffffffffffffffffffffffffffffffffffffffffffffffffffffffffff84846106f8565b905092915050565b600061082e826102bf565b9150610839836102bf565b9250828202610847816102bf565b9150828204841483151761085e5761085d610669565b5b5092915050565b610bec806108746000396000f3fe608060405234801561001057600080fd5b50600436106100a95760003560e01c8063313ce56711610071578063313ce5671461017a57806370a08231146101985780638da5cb5b146101c857806395d89b41146101e6578063a9059cbb14610204578063dd62ed3e14610234576100a9565b806306fdde03146100ae578063095ea7b3146100cc57806318160ddd146100fc57806323b872dd1461011a57806330e0789e1461014a575b600080fd5b6100b6610264565b6040516100c391906106ff565b60405180910390f35b6100e660048036038101906100e191906107ba565b6102f2565b6040516100f39190610815565b60405180910390f35b6101046102fa565b604051610111919061083f565b60405180910390f35b610134600480360381019061012f919061085a565b610300565b6040516101419190610815565b60405180910390f35b610164600480360381019061015f919061085a565b610309565b6040516101719190610815565b60405180910390f35b610182610495565b60405161018f91906108c9565b60405180910390f35b6101b260048036038101906101ad91906108e4565b6104a8565b6040516101bf919061083f565b60405180910390f35b6101d06104c0565b6040516101dd9190610920565b60405180910390f35b6101ee6104e4565b6040516101fb91906106ff565b60405180910390f35b61021e600480360381019061021991906107ba565b610572565b60405161022b9190610815565b60405180910390f35b61024e6004803603810190610249919061093b565b61064a565b60405161025b919061083f565b60405180910390f35b60018054610271906109aa565b80601f016020809104026020016040519081016040528092919081815260200182805461029d906109aa565b80156102ea5780601f106102bf576101008083540402835291602001916102ea565b820191906000526020600020905b8154815290600101906020018083116102cd57829003601f168201915b505050505081565b600092915050565b60045481565b60009392505050565b60008073ffffffffffffffffffffffffffffffffffffffff168373ffffffffffffffffffffffffffffffffffffffff1603610379576040517f08c379a000000000000000000000000000000000000000000000000000000000815260040161037090610a27565b60405180910390fd5b81600560008673ffffffffffffffffffffffffffffffffffffffff1673ffffffffffffffffffffffffffffffffffffffff16815260200190815260200160002060008282546103c89190610a76565b9250508190555081600560008573ffffffffffffffffffffffffffffffffffffffff1673ffffffffffffffffffffffffffffffffffffffff168152602001908152602001600020600082825461041e9190610aaa565b925050819055508273ffffffffffffffffffffffffffffffffffffffff168473ffffffffffffffffffffffffffffffffffffffff167fddf252ad1be2c89b69c2b068fc378daa952ba7f163c4a11628f55a4df523b3ef84604051610482919061083f565b60405180910390a3600190509392505050565b600360009054906101000a900460ff1681565b60056020528060005260406000206000915090505481565b60008054906101000a900473ffffffffffffffffffffffffffffffffffffffff1681565b600280546104f1906109aa565b80601f016020809104026020016040519081016040528092919081815260200182805461051d906109aa565b801561056a5780601f1061053f5761010080835404028352916020019161056a565b820191906000526020600020905b81548152906001019060200180831161054d57829003601f168201915b505050505081565b600081600560003373ffffffffffffffffffffffffffffffffffffffff1673ffffffffffffffffffffffffffffffffffffffff1681526020019081526020016000205410156105f6576040517f08c379a00000000000000000000000000000000000000000000000000000000081526004016105ed90610b2a565b60405180910390fd5b610601338484610309565b610640576040517f08c379a000000000000000000000000000000000000000000000000000000000815260040161063790610b96565b60405180910390fd5b6001905092915050565b6006602052816000526040600020602052806000526040600020600091509150505481565b600081519050919050565b600082825260208201905092915050565b60005b838110156106a957808201518184015260208101905061068e565b60008484015250505050565b6000601f19601f8301169050919050565b60006106d18261066f565b6106db818561067a565b93506106eb81856020860161068b565b6106f4816106b5565b840191505092915050565b6000602082019050818103600083015261071981846106c6565b905092915050565b600080fd5b600073ffffffffffffffffffffffffffffffffffffffff82169050919050565b600061075182610726565b9050919050565b61076181610746565b811461076c57600080fd5b50565b60008135905061077e81610758565b92915050565b6000819050919050565b61079781610784565b81146107a257600080fd5b50565b6000813590506107b48161078e565b92915050565b600080604083850312156107d1576107d0610721565b5b60006107df8582860161076f565b92505060206107f0858286016107a5565b9150509250929050565b60008115159050919050565b61080f816107fa565b82525050565b600060208201905061082a6000830184610806565b92915050565b61083981610784565b82525050565b60006020820190506108546000830184610830565b92915050565b60008060006060848603121561087357610872610721565b5b60006108818682870161076f565b93505060206108928682870161076f565b92505060406108a3868287016107a5565b9150509250925092565b600060ff82169050919050565b6108c3816108ad565b82525050565b60006020820190506108de60008301846108ba565b92915050565b6000602082840312156108fa576108f9610721565b5b60006109088482850161076f565b91505092915050565b61091a81610746565b82525050565b60006020820190506109356000830184610911565b92915050565b6000806040838503121561095257610951610721565b5b60006109608582860161076f565b92505060206109718582860161076f565b9150509250929050565b7f4e487b7100000000000000000000000000000000000000000000000000000000600052602260045260246000fd5b600060028204905060018216806109c257607f821691505b6020821081036109d5576109d461097b565b5b50919050565b7f496e76616c69642027746f2720616464726573732e0000000000000000000000600082015250565b6000610a1160158361067a565b9150610a1c826109db565b602082019050919050565b60006020820190508181036000830152610a4081610a04565b9050919050565b7f4e487b7100000000000000000000000000000000000000000000000000000000600052601160045260246000fd5b6000610a8182610784565b9150610a8c83610784565b9250828203905081811115610aa457610aa3610a47565b5b92915050565b6000610ab582610784565b9150610ac083610784565b9250828201905080821115610ad857610ad7610a47565b5b92915050565b7f496e73756666696369656e742062616c616e63652e0000000000000000000000600082015250565b6000610b1460158361067a565b9150610b1f82610ade565b602082019050919050565b60006020820190508181036000830152610b4381610b07565b9050919050565b7f5472616e73616374696f6e206661696c65642e00000000000000000000000000600082015250565b6000610b8060138361067a565b9150610b8b82610b4a565b602082019050919050565b60006020820190508181036000830152610baf81610b73565b905091905056fea2646970667358221220b96053cde1cb1802103220bdf532df480e24e2c70805bd2521ebc716eca6b6dd64736f6c634300081c0033",
  "linkReferences": {},
  "deployedLinkReferences": {}
}