{
  "_format": "hh-sol-artifact-1",
  "contractName": "Token",
  "sourceName": "contracts/Token.sol",
  "abi": [
    {
      "inputs": [
        {
          "internalType": "string",
          "name": "_name",
          "type": "string"
        },
        {
          "internalType": "string",
          "name": "_symbol",
          "type": "string"
        },
        {
          "internalType": "uint256",
          "name": "_totalSupply",
          "type": "uint256"
        }
      ],
      "stateMutability": "nonpayable",
      "type": "constructor"
    },
    {
      "anonymous": false,
      "inputs": [
        {
          "indexed": true,
          "internalType": "address",
          "name": "owner",
          "type": "address"
        },
        {
          "indexed": true,
          "internalType": "address",
          "name": "spender",
          "type": "address"
        },
        {
          "indexed": false,
          "internalType": "uint256",
          "name": "value",
          "type": "uint256"
        }
      ],
      "name": "Approval",
      "type": "event"
    },
    {
      "anonymous": false,
      "inputs": [
        {
          "indexed": true,
          "internalType": "address",
          "name": "burner",
          "type": "address"
        },
        {
          "indexed": false,
          "internalType": "uint256",
          "name": "value",
          "type": "uint256"
        }
      ],
      "name": "Burn",
      "type": "event"
    },
    {
      "anonymous": false,
      "inputs": [
        {
          "indexed": true,
          "internalType": "address",
          "name": "minter",
          "type": "address"
        },
        {
          "indexed": false,
          "internalType": "uint256",
          "name": "value",
          "type": "uint256"
        }
      ],
      "name": "Mint",
      "type": "event"
    },
    {
      "anonymous": false,
      "inputs": [
        {
          "indexed": true,
          "internalType": "address",
          "name": "from",
          "type": "address"
        },
        {
          "indexed": true,
          "internalType": "address",
          "name": "to",
          "type": "address"
        },
        {
          "indexed": false,
          "internalType": "uint256",
          "name": "value",
          "type": "uint256"
        }
      ],
      "name": "Transfer",
      "type": "event"
    },
    {
      "inputs": [
        {
          "internalType": "address",
          "name": "_from",
          "type": "address"
        },
        {
          "internalType": "address",
          "name": "_to",
          "type": "address"
        },
        {
          "internalType": "uint256",
          "name": "_value",
          "type": "uint256"
        }
      ],
      "name": "_transfer",
      "outputs": [
        {
          "internalType": "bool",
          "name": "success",
          "type": "bool"
        }
      ],
      "stateMutability": "nonpayable",
      "type": "function"
    },
    {
      "inputs": [
        {
          "internalType": "address",
          "name": "",
          "type": "address"
        }
      ],
      "name": "allowMint",
      "outputs": [
        {
          "internalType": "bool",
          "name": "",
          "type": "bool"
        }
      ],
      "stateMutability": "view",
      "type": "function"
    },
    {
      "inputs": [
        {
          "internalType": "address",
          "name": "",
          "type": "address"
        },
        {
          "internalType": "address",
          "name": "",
          "type": "address"
        }
      ],
      "name": "allowance",
      "outputs": [
        {
          "internalType": "uint256",
          "name": "",
          "type": "uint256"
        }
      ],
      "stateMutability": "view",
      "type": "function"
    },
    {
      "inputs": [
        {
          "internalType": "address",
          "name": "_spender",
          "type": "address"
        },
        {
          "internalType": "uint256",
          "name": "_value",
          "type": "uint256"
        }
      ],
      "name": "approve",
      "outputs": [
        {
          "internalType": "bool",
          "name": "success",
          "type": "bool"
        }
      ],
      "stateMutability": "nonpayable",
      "type": "function"
    },
    {
      "inputs": [
        {
          "internalType": "address",
          "name": "",
          "type": "address"
        }
      ],
      "name": "balanceOf",
      "outputs": [
        {
          "internalType": "uint256",
          "name": "",
          "type": "uint256"
        }
      ],
      "stateMutability": "view",
      "type": "function"
    },
    {
      "inputs": [
        {
          "internalType": "uint256",
          "name": "_value",
          "type": "uint256"
        }
      ],
      "name": "burn",
      "outputs": [
        {
          "internalType": "bool",
          "name": "success",
          "type": "bool"
        }
      ],
      "stateMutability": "nonpayable",
      "type": "function"
    },
    {
      "inputs": [],
      "name": "decimals",
      "outputs": [
        {
          "internalType": "uint8",
          "name": "",
          "type": "uint8"
        }
      ],
      "stateMutability": "view",
      "type": "function"
    },
    {
      "inputs": [
        {
          "internalType": "address",
          "name": "_to",
          "type": "address"
        },
        {
          "internalType": "uint256",
          "name": "_value",
          "type": "uint256"
        }
      ],
      "name": "mint",
      "outputs": [
        {
          "internalType": "bool",
          "name": "success",
          "type": "bool"
        }
      ],
      "stateMutability": "nonpayable",
      "type": "function"
    },
    {
      "inputs": [],
      "name": "name",
      "outputs": [
        {
          "internalType": "string",
          "name": "",
          "type": "string"
        }
      ],
      "stateMutability": "view",
      "type": "function"
    },
    {
      "inputs": [],
      "name": "owner",
      "outputs": [
        {
          "internalType": "address",
          "name": "",
          "type": "address"
        }
      ],
      "stateMutability": "view",
      "type": "function"
    },
    {
      "inputs": [
        {
          "internalType": "address",
          "name": "_minter",
          "type": "address"
        },
        {
          "internalType": "bool",
          "name": "_allowMint",
          "type": "bool"
        }
      ],
      "name": "setAllowMint",
      "outputs": [
        {
          "internalType": "bool",
          "name": "success",
          "type": "bool"
        }
      ],
      "stateMutability": "nonpayable",
      "type": "function"
    },
    {
      "inputs": [],
      "name": "symbol",
      "outputs": [
        {
          "internalType": "string",
          "name": "",
          "type": "string"
        }
      ],
      "stateMutability": "view",
      "type": "function"
    },
    {
      "inputs": [],
      "name": "totalSupply",
      "outputs": [
        {
          "internalType": "uint256",
          "name": "",
          "type": "uint256"
        }
      ],
      "stateMutability": "view",
      "type": "function"
    },
    {
      "inputs": [
        {
          "internalType": "address",
          "name": "_to",
          "type": "address"
        },
        {
          "internalType": "uint256",
          "name": "_value",
          "type": "uint256"
        }
      ],
      "name": "transfer",
      "outputs": [
        {
          "internalType": "bool",
          "name": "success",
          "type": "bool"
        }
      ],
      "stateMutability": "nonpayable",
      "type": "function"
    },
    {
      "inputs": [
        {
          "internalType": "address",
          "name": "_from",
          "type": "address"
        },
        {
          "internalType": "address",
          "name": "_to",
          "type": "address"
        },
        {
          "internalType": "uint256",
          "name": "_value",
          "type": "uint256"
        }
      ],
      "name": "transferFrom",
      "outputs": [
        {
          "internalType": "bool",
          "name": "success",
          "type": "bool"
        }
      ],
      "stateMutability": "nonpayable",
      "type": "function"
    }
  ],
  "bytecode": "0x60806040526012600360006101000a81548160ff021916908360ff16021790555034801561002c57600080fd5b50604051612026380380612026833981810160405281019061004e919061036e565b336000806101000a81548173ffffffffffffffffffffffffffffffffffffffff021916908373ffffffffffffffffffffffffffffffffffffffff160217905550826001908161009d9190610610565b5081600290816100ad9190610610565b50600360009054906101000a900460ff16600a6100ca9190610851565b816100d5919061089c565b600481905550600454600560008060009054906101000a900473ffffffffffffffffffffffffffffffffffffffff1673ffffffffffffffffffffffffffffffffffffffff1673ffffffffffffffffffffffffffffffffffffffff168152602001908152602001600020819055506001600760008060009054906101000a900473ffffffffffffffffffffffffffffffffffffffff1673ffffffffffffffffffffffffffffffffffffffff1673ffffffffffffffffffffffffffffffffffffffff16815260200190815260200160002060006101000a81548160ff0219169083151502179055505050506108de565b6000604051905090565b600080fd5b600080fd5b600080fd5b600080fd5b6000601f19601f8301169050919050565b7f4e487b7100000000000000000000000000000000000000000000000000000000600052604160045260246000fd5b61022a826101e1565b810181811067ffffffffffffffff82111715610249576102486101f2565b5b80604052505050565b600061025c6101c3565b90506102688282610221565b919050565b600067ffffffffffffffff821115610288576102876101f2565b5b610291826101e1565b9050602081019050919050565b60005b838110156102bc5780820151818401526020810190506102a1565b60008484015250505050565b60006102db6102d68461026d565b610252565b9050828152602081018484840111156102f7576102f66101dc565b5b61030284828561029e565b509392505050565b600082601f83011261031f5761031e6101d7565b5b815161032f8482602086016102c8565b91505092915050565b6000819050919050565b61034b81610338565b811461035657600080fd5b50565b60008151905061036881610342565b92915050565b600080600060608486031215610387576103866101cd565b5b600084015167ffffffffffffffff8111156103a5576103a46101d2565b5b6103b18682870161030a565b935050602084015167ffffffffffffffff8111156103d2576103d16101d2565b5b6103de8682870161030a565b92505060406103ef86828701610359565b9150509250925092565b600081519050919050565b7f4e487b7100000000000000000000000000000000000000000000000000000000600052602260045260246000fd5b6000600282049050600182168061044b57607f821691505b60208210810361045e5761045d610404565b5b50919050565b60008190508160005260206000209050919050565b60006020601f8301049050919050565b600082821b905092915050565b6000600883026104c67fffffffffffffffffffffffffffffffffffffffffffffffffffffffffffffffff82610489565b6104d08683610489565b95508019841693508086168417925050509392505050565b6000819050919050565b600061050d61050861050384610338565b6104e8565b610338565b9050919050565b6000819050919050565b610527836104f2565b61053b61053382610514565b848454610496565b825550505050565b600090565b610550610543565b61055b81848461051e565b505050565b5b8181101561057f57610574600082610548565b600181019050610561565b5050565b601f8211156105c45761059581610464565b61059e84610479565b810160208510156105ad578190505b6105c16105b985610479565b830182610560565b50505b505050565b600082821c905092915050565b60006105e7600019846008026105c9565b1980831691505092915050565b600061060083836105d6565b9150826002028217905092915050565b610619826103f9565b67ffffffffffffffff811115610632576106316101f2565b5b61063c8254610433565b610647828285610583565b600060209050601f83116001811461067a5760008415610668578287015190505b61067285826105f4565b8655506106da565b601f19841661068886610464565b60005b828110156106b05784890151825560018201915060208501945060208101905061068b565b868310156106cd57848901516106c9601f8916826105d6565b8355505b6001600288020188555050505b505050505050565b7f4e487b7100000000000000000000000000000000000000000000000000000000600052601160045260246000fd5b60008160011c9050919050565b6000808291508390505b600185111561076857808604811115610744576107436106e2565b5b60018516156107535780820291505b808102905061076185610711565b9450610728565b94509492505050565b600082610781576001905061083d565b8161078f576000905061083d565b81600181146107a557600281146107af576107de565b600191505061083d565b60ff8411156107c1576107c06106e2565b5b8360020a9150848211156107d8576107d76106e2565b5b5061083d565b5060208310610133831016604e8410600b84101617156108135782820a90508381111561080e5761080d6106e2565b5b61083d565b610820848484600161071e565b92509050818404811115610837576108366106e2565b5b81810290505b9392505050565b600060ff82169050919050565b600061085c82610338565b915061086783610844565b92506108947fffffffffffffffffffffffffffffffffffffffffffffffffffffffffffffffff8484610771565b905092915050565b60006108a782610338565b91506108b283610338565b92508282026108c081610338565b915082820484148315176108d7576108d66106e2565b5b5092915050565b611739806108ed6000396000f3fe608060405234801561001057600080fd5b50600436106100f55760003560e01c806340c10f19116100975780638da5cb5b116100665780638da5cb5b146102d457806395d89b41146102f2578063a9059cbb14610310578063dd62ed3e14610340576100f5565b806340c10f191461021457806342966c6814610244578063640cff981461027457806370a08231146102a4576100f5565b80631d261175116100d35780631d2611751461016657806323b872dd1461019657806330e0789e146101c6578063313ce567146101f6576100f5565b806306fdde03146100fa578063095ea7b31461011857806318160ddd14610148575b600080fd5b610102610370565b60405161010f9190610f2b565b60405180910390f35b610132600480360381019061012d9190610fe6565b6103fe565b60405161013f9190611041565b60405180910390f35b61015061055e565b60405161015d919061106b565b60405180910390f35b610180600480360381019061017b91906110b2565b610564565b60405161018d9190611041565b60405180910390f35b6101b060048036038101906101ab91906110f2565b6106c5565b6040516101bd9190611041565b60405180910390f35b6101e060048036038101906101db91906110f2565b61086e565b6040516101ed9190611041565b60405180910390f35b6101fe610a7d565b60405161020b9190611161565b60405180910390f35b61022e60048036038101906102299190610fe6565b610a90565b60405161023b9190611041565b60405180910390f35b61025e6004803603810190610259919061117c565b610bec565b60405161026b9190611041565b60405180910390f35b61028e600480360381019061028991906111a9565b610d36565b60405161029b9190611041565b60405180910390f35b6102be60048036038101906102b991906111a9565b610d56565b6040516102cb919061106b565b60405180910390f35b6102dc610d6e565b6040516102e991906111e5565b60405180910390f35b6102fa610d92565b6040516103079190610f2b565b60405180910390f35b61032a60048036038101906103259190610fe6565b610e20565b6040516103379190611041565b60405180910390f35b61035a60048036038101906103559190611200565b610e76565b604051610367919061106b565b60405180910390f35b6001805461037d9061126f565b80601f01602080910402602001604051908101604052809291908181526020018280546103a99061126f565b80156103f65780601f106103cb576101008083540402835291602001916103f6565b820191906000526020600020905b8154815290600101906020018083116103d957829003601f168201915b505050505081565b60008073ffffffffffffffffffffffffffffffffffffffff168373ffffffffffffffffffffffffffffffffffffffff160361046e576040517f08c379a0000000000000000000000000000000000000000000000000000000008152600401610465906112ec565b60405180910390fd5b81600660003373ffffffffffffffffffffffffffffffffffffffff1673ffffffffffffffffffffffffffffffffffffffff16815260200190815260200160002060008573ffffffffffffffffffffffffffffffffffffffff1673ffffffffffffffffffffffffffffffffffffffff168152602001908152602001600020819055508273ffffffffffffffffffffffffffffffffffffffff163373ffffffffffffffffffffffffffffffffffffffff167f8c5be1e5ebec7d5bd14f71427d1e84f3dd0314c0f7b2291e5b200ac8c7c3b9258460405161054c919061106b565b60405180910390a36001905092915050565b60045481565b60008060009054906101000a900473ffffffffffffffffffffffffffffffffffffffff1673ffffffffffffffffffffffffffffffffffffffff163373ffffffffffffffffffffffffffffffffffffffff16146105f5576040517f08c379a00000000000000000000000000000000000000000000000000000000081526004016105ec90611358565b60405180910390fd5b600073ffffffffffffffffffffffffffffffffffffffff168373ffffffffffffffffffffffffffffffffffffffff1603610664576040517f08c379a000000000000000000000000000000000000000000000000000000000815260040161065b906113c4565b60405180910390fd5b81600760008573ffffffffffffffffffffffffffffffffffffffff1673ffffffffffffffffffffffffffffffffffffffff16815260200190815260200160002060006101000a81548160ff0219169083151502179055506001905092915050565b600081600660008673ffffffffffffffffffffffffffffffffffffffff1673ffffffffffffffffffffffffffffffffffffffff16815260200190815260200160002060003373ffffffffffffffffffffffffffffffffffffffff1673ffffffffffffffffffffffffffffffffffffffff168152602001908152602001600020541015610786576040517f08c379a000000000000000000000000000000000000000000000000000000000815260040161077d90611430565b60405180910390fd5b61079184848461086e565b6107d0576040517f08c379a00000000000000000000000000000000000000000000000000000000081526004016107c79061149c565b60405180910390fd5b81600660008673ffffffffffffffffffffffffffffffffffffffff1673ffffffffffffffffffffffffffffffffffffffff16815260200190815260200160002060003373ffffffffffffffffffffffffffffffffffffffff1673ffffffffffffffffffffffffffffffffffffffff168152602001908152602001600020600082825461085c91906114eb565b92505081905550600190509392505050565b600081600560008673ffffffffffffffffffffffffffffffffffffffff1673ffffffffffffffffffffffffffffffffffffffff1681526020019081526020016000205410156108f2576040517f08c379a00000000000000000000000000000000000000000000000000000000081526004016108e99061156b565b60405180910390fd5b600073ffffffffffffffffffffffffffffffffffffffff168373ffffffffffffffffffffffffffffffffffffffff1603610961576040517f08c379a0000000000000000000000000000000000000000000000000000000008152600401610958906115d7565b60405180910390fd5b81600560008673ffffffffffffffffffffffffffffffffffffffff1673ffffffffffffffffffffffffffffffffffffffff16815260200190815260200160002060008282546109b091906114eb565b9250508190555081600560008573ffffffffffffffffffffffffffffffffffffffff1673ffffffffffffffffffffffffffffffffffffffff1681526020019081526020016000206000828254610a0691906115f7565b925050819055508273ffffffffffffffffffffffffffffffffffffffff168473ffffffffffffffffffffffffffffffffffffffff167fddf252ad1be2c89b69c2b068fc378daa952ba7f163c4a11628f55a4df523b3ef84604051610a6a919061106b565b60405180910390a3600190509392505050565b600360009054906101000a900460ff1681565b600060011515600760003373ffffffffffffffffffffffffffffffffffffffff1673ffffffffffffffffffffffffffffffffffffffff16815260200190815260200160002060009054906101000a900460ff16151514610b25576040517f08c379a0000000000000000000000000000000000000000000000000000000008152600401610b1c90611677565b60405180910390fd5b81600560008573ffffffffffffffffffffffffffffffffffffffff1673ffffffffffffffffffffffffffffffffffffffff1681526020019081526020016000206000828254610b7491906115f7565b925050819055508160046000828254610b8d91906115f7565b925050819055508273ffffffffffffffffffffffffffffffffffffffff167f0f6798a560793a54c3bcfe86a93cde1e73087d944c0ea20544137d412139688583604051610bda919061106b565b60405180910390a26001905092915050565b600081600560003373ffffffffffffffffffffffffffffffffffffffff1673ffffffffffffffffffffffffffffffffffffffff168152602001908152602001600020541015610c70576040517f08c379a0000000000000000000000000000000000000000000000000000000008152600401610c679061156b565b60405180910390fd5b81600560003373ffffffffffffffffffffffffffffffffffffffff1673ffffffffffffffffffffffffffffffffffffffff1681526020019081526020016000206000828254610cbf91906114eb565b925050819055508160046000828254610cd891906114eb565b925050819055503373ffffffffffffffffffffffffffffffffffffffff167fcc16f5dbb4873280815c1ee09dbd06736cffcc184412cf7a71a0fdb75d397ca583604051610d25919061106b565b60405180910390a260019050919050565b60076020528060005260406000206000915054906101000a900460ff1681565b60056020528060005260406000206000915090505481565b60008054906101000a900473ffffffffffffffffffffffffffffffffffffffff1681565b60028054610d9f9061126f565b80601f0160208091040260200160405190810160405280929190818152602001828054610dcb9061126f565b8015610e185780601f10610ded57610100808354040283529160200191610e18565b820191906000526020600020905b815481529060010190602001808311610dfb57829003601f168201915b505050505081565b6000610e2d33848461086e565b610e6c576040517f08c379a0000000000000000000000000000000000000000000000000000000008152600401610e63906116e3565b60405180910390fd5b6001905092915050565b6006602052816000526040600020602052806000526040600020600091509150505481565b600081519050919050565b600082825260208201905092915050565b60005b83811015610ed5578082015181840152602081019050610eba565b60008484015250505050565b6000601f19601f8301169050919050565b6000610efd82610e9b565b610f078185610ea6565b9350610f17818560208601610eb7565b610f2081610ee1565b840191505092915050565b60006020820190508181036000830152610f458184610ef2565b905092915050565b600080fd5b600073ffffffffffffffffffffffffffffffffffffffff82169050919050565b6000610f7d82610f52565b9050919050565b610f8d81610f72565b8114610f9857600080fd5b50565b600081359050610faa81610f84565b92915050565b6000819050919050565b610fc381610fb0565b8114610fce57600080fd5b50565b600081359050610fe081610fba565b92915050565b60008060408385031215610ffd57610ffc610f4d565b5b600061100b85828601610f9b565b925050602061101c85828601610fd1565b9150509250929050565b60008115159050919050565b61103b81611026565b82525050565b60006020820190506110566000830184611032565b92915050565b61106581610fb0565b82525050565b6000602082019050611080600083018461105c565b92915050565b61108f81611026565b811461109a57600080fd5b50565b6000813590506110ac81611086565b92915050565b600080604083850312156110c9576110c8610f4d565b5b60006110d785828601610f9b565b92505060206110e88582860161109d565b9150509250929050565b60008060006060848603121561110b5761110a610f4d565b5b600061111986828701610f9b565b935050602061112a86828701610f9b565b925050604061113b86828701610fd1565b9150509250925092565b600060ff82169050919050565b61115b81611145565b82525050565b60006020820190506111766000830184611152565b92915050565b60006020828403121561119257611191610f4d565b5b60006111a084828501610fd1565b91505092915050565b6000602082840312156111bf576111be610f4d565b5b60006111cd84828501610f9b565b91505092915050565b6111df81610f72565b82525050565b60006020820190506111fa60008301846111d6565b92915050565b6000806040838503121561121757611216610f4d565b5b600061122585828601610f9b565b925050602061123685828601610f9b565b9150509250929050565b7f4e487b7100000000000000000000000000000000000000000000000000000000600052602260045260246000fd5b6000600282049050600182168061128757607f821691505b60208210810361129a57611299611240565b5b50919050565b7f496e76616c696420277370656e6465722720616464726573732e000000000000600082015250565b60006112d6601a83610ea6565b91506112e1826112a0565b602082019050919050565b60006020820190508181036000830152611305816112c9565b9050919050565b7f556e617574686f72697a65642063616c6c65722e000000000000000000000000600082015250565b6000611342601483610ea6565b915061134d8261130c565b602082019050919050565b6000602082019050818103600083015261137181611335565b9050919050565b7f496e76616c6964206d696e74657220616464726573732e000000000000000000600082015250565b60006113ae601783610ea6565b91506113b982611378565b602082019050919050565b600060208201905081810360008301526113dd816113a1565b9050919050565b7f496e73756666696369656e7420616c6c6f77616e63652e000000000000000000600082015250565b600061141a601783610ea6565b9150611425826113e4565b602082019050919050565b600060208201905081810360008301526114498161140d565b9050919050565b7f5472616e73616374696f6e206661696c65640000000000000000000000000000600082015250565b6000611486601283610ea6565b915061149182611450565b602082019050919050565b600060208201905081810360008301526114b581611479565b9050919050565b7f4e487b7100000000000000000000000000000000000000000000000000000000600052601160045260246000fd5b60006114f682610fb0565b915061150183610fb0565b9250828203905081811115611519576115186114bc565b5b92915050565b7f496e73756666696369656e742062616c616e63652e0000000000000000000000600082015250565b6000611555601583610ea6565b91506115608261151f565b602082019050919050565b6000602082019050818103600083015261158481611548565b9050919050565b7f496e76616c69642027746f2720616464726573732e0000000000000000000000600082015250565b60006115c1601583610ea6565b91506115cc8261158b565b602082019050919050565b600060208201905081810360008301526115f0816115b4565b9050919050565b600061160282610fb0565b915061160d83610fb0565b9250828201905080821115611625576116246114bc565b5b92915050565b7f556e617574686f72697a6564206d696e7465722e000000000000000000000000600082015250565b6000611661601483610ea6565b915061166c8261162b565b602082019050919050565b6000602082019050818103600083015261169081611654565b9050919050565b7f5472616e73616374696f6e206661696c65642e00000000000000000000000000600082015250565b60006116cd601383610ea6565b91506116d882611697565b602082019050919050565b600060208201905081810360008301526116fc816116c0565b905091905056fea26469706673582212206a5d8fa1ec948bc2cf4b1f09f9811903bf8897d5d691242af1c0ce400f99f47564736f6c634300081c0033",
  "linkReferences": {},
  "deployedLinkReferences": {}
}