{
  "_format": "hh-sol-artifact-1",
  "contractName": "Token",
  "sourceName": "contracts/Token.sol",
  "abi": [
    {
      "inputs": [
        {
          "internalType": "string",
          "name": "_name",
          "type": "string"
        },
        {
          "internalType": "string",
          "name": "_symbol",
          "type": "string"
        },
        {
          "internalType": "uint256",
          "name": "_maxSupply",
          "type": "uint256"
        }
      ],
      "stateMutability": "nonpayable",
      "type": "constructor"
    },
    {
      "inputs": [
        {
          "internalType": "address",
          "name": "_from",
          "type": "address"
        },
        {
          "internalType": "address",
          "name": "_to",
          "type": "address"
        },
        {
          "internalType": "uint256",
          "name": "_amount",
          "type": "uint256"
        }
      ],
      "name": "_transfer",
      "outputs": [
        {
          "internalType": "bool",
          "name": "success",
          "type": "bool"
        }
      ],
      "stateMutability": "nonpayable",
      "type": "function"
    },
    {
      "inputs": [
        {
          "internalType": "address",
          "name": "",
          "type": "address"
        }
      ],
      "name": "balanceOf",
      "outputs": [
        {
          "internalType": "uint256",
          "name": "",
          "type": "uint256"
        }
      ],
      "stateMutability": "view",
      "type": "function"
    },
    {
      "inputs": [],
      "name": "decimals",
      "outputs": [
        {
          "internalType": "uint256",
          "name": "",
          "type": "uint256"
        }
      ],
      "stateMutability": "view",
      "type": "function"
    },
    {
      "inputs": [],
      "name": "maxSupply",
      "outputs": [
        {
          "internalType": "uint256",
          "name": "",
          "type": "uint256"
        }
      ],
      "stateMutability": "view",
      "type": "function"
    },
    {
      "inputs": [],
      "name": "name",
      "outputs": [
        {
          "internalType": "string",
          "name": "",
          "type": "string"
        }
      ],
      "stateMutability": "view",
      "type": "function"
    },
    {
      "inputs": [],
      "name": "owner",
      "outputs": [
        {
          "internalType": "address",
          "name": "",
          "type": "address"
        }
      ],
      "stateMutability": "view",
      "type": "function"
    },
    {
      "inputs": [],
      "name": "symbol",
      "outputs": [
        {
          "internalType": "string",
          "name": "",
          "type": "string"
        }
      ],
      "stateMutability": "view",
      "type": "function"
    },
    {
      "inputs": [
        {
          "internalType": "address",
          "name": "_to",
          "type": "address"
        },
        {
          "internalType": "uint256",
          "name": "_amount",
          "type": "uint256"
        }
      ],
      "name": "transfer",
      "outputs": [
        {
          "internalType": "bool",
          "name": "success",
          "type": "bool"
        }
      ],
      "stateMutability": "nonpayable",
      "type": "function"
    }
  ],
  "bytecode": "0x6080604052601260035534801561001557600080fd5b5060405161125f38038061125f833981810160405281019061003791906102d1565b336000806101000a81548173ffffffffffffffffffffffffffffffffffffffff021916908373ffffffffffffffffffffffffffffffffffffffff16021790555082600190816100869190610573565b5081600290816100969190610573565b50600354600a6100a691906107a7565b816100b191906107f2565b600481905550600454600560008060009054906101000a900473ffffffffffffffffffffffffffffffffffffffff1673ffffffffffffffffffffffffffffffffffffffff1673ffffffffffffffffffffffffffffffffffffffff16815260200190815260200160002081905550505050610834565b6000604051905090565b600080fd5b600080fd5b600080fd5b600080fd5b6000601f19601f8301169050919050565b7f4e487b7100000000000000000000000000000000000000000000000000000000600052604160045260246000fd5b61018d82610144565b810181811067ffffffffffffffff821117156101ac576101ab610155565b5b80604052505050565b60006101bf610126565b90506101cb8282610184565b919050565b600067ffffffffffffffff8211156101eb576101ea610155565b5b6101f482610144565b9050602081019050919050565b60005b8381101561021f578082015181840152602081019050610204565b60008484015250505050565b600061023e610239846101d0565b6101b5565b90508281526020810184848401111561025a5761025961013f565b5b610265848285610201565b509392505050565b600082601f8301126102825761028161013a565b5b815161029284826020860161022b565b91505092915050565b6000819050919050565b6102ae8161029b565b81146102b957600080fd5b50565b6000815190506102cb816102a5565b92915050565b6000806000606084860312156102ea576102e9610130565b5b600084015167ffffffffffffffff81111561030857610307610135565b5b6103148682870161026d565b935050602084015167ffffffffffffffff81111561033557610334610135565b5b6103418682870161026d565b9250506040610352868287016102bc565b9150509250925092565b600081519050919050565b7f4e487b7100000000000000000000000000000000000000000000000000000000600052602260045260246000fd5b600060028204905060018216806103ae57607f821691505b6020821081036103c1576103c0610367565b5b50919050565b60008190508160005260206000209050919050565b60006020601f8301049050919050565b600082821b905092915050565b6000600883026104297fffffffffffffffffffffffffffffffffffffffffffffffffffffffffffffffff826103ec565b61043386836103ec565b95508019841693508086168417925050509392505050565b6000819050919050565b600061047061046b6104668461029b565b61044b565b61029b565b9050919050565b6000819050919050565b61048a83610455565b61049e61049682610477565b8484546103f9565b825550505050565b600090565b6104b36104a6565b6104be818484610481565b505050565b5b818110156104e2576104d76000826104ab565b6001810190506104c4565b5050565b601f821115610527576104f8816103c7565b610501846103dc565b81016020851015610510578190505b61052461051c856103dc565b8301826104c3565b50505b505050565b600082821c905092915050565b600061054a6000198460080261052c565b1980831691505092915050565b60006105638383610539565b9150826002028217905092915050565b61057c8261035c565b67ffffffffffffffff81111561059557610594610155565b5b61059f8254610396565b6105aa8282856104e6565b600060209050601f8311600181146105dd57600084156105cb578287015190505b6105d58582610557565b86555061063d565b601f1984166105eb866103c7565b60005b82811015610613578489015182556001820191506020850194506020810190506105ee565b86831015610630578489015161062c601f891682610539565b8355505b6001600288020188555050505b505050505050565b7f4e487b7100000000000000000000000000000000000000000000000000000000600052601160045260246000fd5b60008160011c9050919050565b6000808291508390505b60018511156106cb578086048111156106a7576106a6610645565b5b60018516156106b65780820291505b80810290506106c485610674565b945061068b565b94509492505050565b6000826106e457600190506107a0565b816106f257600090506107a0565b8160018114610708576002811461071257610741565b60019150506107a0565b60ff84111561072457610723610645565b5b8360020a91508482111561073b5761073a610645565b5b506107a0565b5060208310610133831016604e8410600b84101617156107765782820a90508381111561077157610770610645565b5b6107a0565b6107838484846001610681565b9250905081840481111561079a57610799610645565b5b81810290505b9392505050565b60006107b28261029b565b91506107bd8361029b565b92506107ea7fffffffffffffffffffffffffffffffffffffffffffffffffffffffffffffffff84846106d4565b905092915050565b60006107fd8261029b565b91506108088361029b565b92508282026108168161029b565b9150828204841483151761082d5761082c610645565b5b5092915050565b610a1c806108436000396000f3fe608060405234801561001057600080fd5b50600436106100885760003560e01c80638da5cb5b1161005b5780638da5cb5b1461012957806395d89b4114610147578063a9059cbb14610165578063d5abeb011461019557610088565b806306fdde031461008d57806330e0789e146100ab578063313ce567146100db57806370a08231146100f9575b600080fd5b6100956101b3565b6040516100a291906105a6565b60405180910390f35b6100c560048036038101906100c09190610661565b610241565b6040516100d291906106cf565b60405180910390f35b6100e3610368565b6040516100f091906106f9565b60405180910390f35b610113600480360381019061010e9190610714565b61036e565b60405161012091906106f9565b60405180910390f35b610131610386565b60405161013e9190610750565b60405180910390f35b61014f6103aa565b60405161015c91906105a6565b60405180910390f35b61017f600480360381019061017a919061076b565b610438565b60405161018c91906106cf565b60405180910390f35b61019d610510565b6040516101aa91906106f9565b60405180910390f35b600180546101c0906107da565b80601f01602080910402602001604051908101604052809291908181526020018280546101ec906107da565b80156102395780601f1061020e57610100808354040283529160200191610239565b820191906000526020600020905b81548152906001019060200180831161021c57829003601f168201915b505050505081565b60008073ffffffffffffffffffffffffffffffffffffffff168373ffffffffffffffffffffffffffffffffffffffff16036102b1576040517f08c379a00000000000000000000000000000000000000000000000000000000081526004016102a890610857565b60405180910390fd5b81600560008673ffffffffffffffffffffffffffffffffffffffff1673ffffffffffffffffffffffffffffffffffffffff168152602001908152602001600020600082825461030091906108a6565b9250508190555081600560008573ffffffffffffffffffffffffffffffffffffffff1673ffffffffffffffffffffffffffffffffffffffff168152602001908152602001600020600082825461035691906108da565b92505081905550600190509392505050565b60035481565b60056020528060005260406000206000915090505481565b60008054906101000a900473ffffffffffffffffffffffffffffffffffffffff1681565b600280546103b7906107da565b80601f01602080910402602001604051908101604052809291908181526020018280546103e3906107da565b80156104305780601f1061040557610100808354040283529160200191610430565b820191906000526020600020905b81548152906001019060200180831161041357829003601f168201915b505050505081565b600081600560003373ffffffffffffffffffffffffffffffffffffffff1673ffffffffffffffffffffffffffffffffffffffff1681526020019081526020016000205410156104bc576040517f08c379a00000000000000000000000000000000000000000000000000000000081526004016104b39061095a565b60405180910390fd5b6104c7338484610241565b610506576040517f08c379a00000000000000000000000000000000000000000000000000000000081526004016104fd906109c6565b60405180910390fd5b6001905092915050565b60045481565b600081519050919050565b600082825260208201905092915050565b60005b83811015610550578082015181840152602081019050610535565b60008484015250505050565b6000601f19601f8301169050919050565b600061057882610516565b6105828185610521565b9350610592818560208601610532565b61059b8161055c565b840191505092915050565b600060208201905081810360008301526105c0818461056d565b905092915050565b600080fd5b600073ffffffffffffffffffffffffffffffffffffffff82169050919050565b60006105f8826105cd565b9050919050565b610608816105ed565b811461061357600080fd5b50565b600081359050610625816105ff565b92915050565b6000819050919050565b61063e8161062b565b811461064957600080fd5b50565b60008135905061065b81610635565b92915050565b60008060006060848603121561067a576106796105c8565b5b600061068886828701610616565b935050602061069986828701610616565b92505060406106aa8682870161064c565b9150509250925092565b60008115159050919050565b6106c9816106b4565b82525050565b60006020820190506106e460008301846106c0565b92915050565b6106f38161062b565b82525050565b600060208201905061070e60008301846106ea565b92915050565b60006020828403121561072a576107296105c8565b5b600061073884828501610616565b91505092915050565b61074a816105ed565b82525050565b60006020820190506107656000830184610741565b92915050565b60008060408385031215610782576107816105c8565b5b600061079085828601610616565b92505060206107a18582860161064c565b9150509250929050565b7f4e487b7100000000000000000000000000000000000000000000000000000000600052602260045260246000fd5b600060028204905060018216806107f257607f821691505b602082108103610805576108046107ab565b5b50919050565b7f496e76616c69642027746f2720616464726573732e0000000000000000000000600082015250565b6000610841601583610521565b915061084c8261080b565b602082019050919050565b6000602082019050818103600083015261087081610834565b9050919050565b7f4e487b7100000000000000000000000000000000000000000000000000000000600052601160045260246000fd5b60006108b18261062b565b91506108bc8361062b565b92508282039050818111156108d4576108d3610877565b5b92915050565b60006108e58261062b565b91506108f08361062b565b925082820190508082111561090857610907610877565b5b92915050565b7f496e73756666696369656e742062616c616e63652e0000000000000000000000600082015250565b6000610944601583610521565b915061094f8261090e565b602082019050919050565b6000602082019050818103600083015261097381610937565b9050919050565b7f5472616e73616374696f6e206661696c65642e00000000000000000000000000600082015250565b60006109b0601383610521565b91506109bb8261097a565b602082019050919050565b600060208201905081810360008301526109df816109a3565b905091905056fea2646970667358221220e7cda9f3a2d9eeabef195db0fda4fd9f71fb7e7f2321635dba53a6269f60b4f364736f6c634300081c0033",
  "linkReferences": {},
  "deployedLinkReferences": {}
}